{
  "contractName": "DeployFactory",
  "abi": [
    {
      "anonymous": false,
      "inputs": [
        {
          "indexed": true,
          "internalType": "address",
          "name": "cashBoxAddress",
          "type": "address"
        },
        {
          "indexed": true,
          "internalType": "address",
          "name": "cashBoxOwner",
          "type": "address"
        },
        {
          "indexed": true,
          "internalType": "address",
          "name": "assetTokenAddress",
          "type": "address"
        },
        {
          "indexed": false,
          "internalType": "address",
          "name": "cashTokenAddress",
          "type": "address"
        },
        {
          "indexed": false,
          "internalType": "string",
          "name": "url",
          "type": "string"
        }
      ],
      "name": "CashBoxAdded",
      "type": "event"
    },
    {
      "constant": true,
      "inputs": [
        {
          "internalType": "uint256",
          "name": "",
          "type": "uint256"
        }
      ],
      "name": "cashBoxes",
      "outputs": [
        {
          "internalType": "address",
          "name": "",
          "type": "address"
        }
      ],
      "payable": false,
      "stateMutability": "view",
      "type": "function"
    },
    {
      "constant": false,
      "inputs": [
        {
          "internalType": "address",
          "name": "cashTokenAddress",
          "type": "address"
        },
        {
          "internalType": "address",
          "name": "assetTokenAddress",
          "type": "address"
        },
        {
          "internalType": "uint256",
          "name": "assetToCashRate",
          "type": "uint256"
        },
        {
          "internalType": "uint256",
          "name": "cashCap",
          "type": "uint256"
        },
        {
          "internalType": "string",
          "name": "name",
          "type": "string"
        },
        {
          "internalType": "string",
          "name": "symbol",
          "type": "string"
        },
        {
          "internalType": "string",
          "name": "url",
          "type": "string"
        }
      ],
      "name": "createCashBox",
      "outputs": [
        {
          "internalType": "address",
          "name": "newCashBox",
          "type": "address"
        }
      ],
      "payable": false,
      "stateMutability": "nonpayable",
      "type": "function"
    },
    {
      "constant": true,
      "inputs": [],
      "name": "getAllCashBoxes",
      "outputs": [
        {
          "internalType": "address[]",
          "name": "",
          "type": "address[]"
        }
      ],
      "payable": false,
      "stateMutability": "view",
      "type": "function"
    },
    {
      "constant": true,
      "inputs": [
        {
          "internalType": "address",
          "name": "account",
          "type": "address"
        }
      ],
      "name": "getCashBoxesByUser",
      "outputs": [
        {
          "internalType": "address[]",
          "name": "",
          "type": "address[]"
        }
      ],
      "payable": false,
      "stateMutability": "view",
      "type": "function"
    }
  ],
  "bytecode": "0x608060405234801561001057600080fd5b506154df806100206000396000f3fe60806040523480156200001157600080fd5b5060043610620000525760003560e01c80631fd6f97c14620000575780637f6b05c414620000ba578063baecb4151462000343578063d77bef2114620003b4575b600080fd5b6200006162000452565b6040518080602001828103825283818151815260200191508051906020019060200280838360005b83811015620000a657808201518184015260208101905062000089565b505050509050019250505060405180910390f35b62000301600480360360e0811015620000d257600080fd5b81019080803573ffffffffffffffffffffffffffffffffffffffff169060200190929190803573ffffffffffffffffffffffffffffffffffffffff1690602001909291908035906020019092919080359060200190929190803590602001906401000000008111156200014457600080fd5b8201836020820111156200015757600080fd5b803590602001918460018302840111640100000000831117156200017a57600080fd5b91908080601f016020809104026020016040519081016040528093929190818152602001838380828437600081840152601f19601f82011690508083019250505050505050919291929080359060200190640100000000811115620001de57600080fd5b820183602082011115620001f157600080fd5b803590602001918460018302840111640100000000831117156200021457600080fd5b91908080601f016020809104026020016040519081016040528093929190818152602001838380828437600081840152601f19601f820116905080830192505050505050509192919290803590602001906401000000008111156200027857600080fd5b8201836020820111156200028b57600080fd5b80359060200191846001830284011164010000000083111715620002ae57600080fd5b91908080601f016020809104026020016040519081016040528093929190818152602001838380828437600081840152601f19601f820116905080830192505050505050509192919290505050620004e2565b604051808273ffffffffffffffffffffffffffffffffffffffff1673ffffffffffffffffffffffffffffffffffffffff16815260200191505060405180910390f35b62000372600480360360208110156200035b57600080fd5b810190808035906020019092919050505062000904565b604051808273ffffffffffffffffffffffffffffffffffffffff1673ffffffffffffffffffffffffffffffffffffffff16815260200191505060405180910390f35b620003f960048036036020811015620003cc57600080fd5b81019080803573ffffffffffffffffffffffffffffffffffffffff16906020019092919050505062000941565b6040518080602001828103825283818151815260200191508051906020019060200280838360005b838110156200043e57808201518184015260208101905062000421565b505050509050019250505060405180910390f35b60606000805480602002602001604051908101604052809291908181526020018280548015620004d857602002820191906000526020600020905b8160009054906101000a900473ffffffffffffffffffffffffffffffffffffffff1673ffffffffffffffffffffffffffffffffffffffff16815260200190600101908083116200048d575b5050505050905090565b60008088888888888888604051620004fa9062000be4565b808873ffffffffffffffffffffffffffffffffffffffff1673ffffffffffffffffffffffffffffffffffffffff1681526020018773ffffffffffffffffffffffffffffffffffffffff1673ffffffffffffffffffffffffffffffffffffffff168152602001868152602001858152602001806020018060200180602001848103845287818151815260200191508051906020019080838360005b83811015620005b157808201518184015260208101905062000594565b50505050905090810190601f168015620005df5780820380516001836020036101000a031916815260200191505b50848103835286818151815260200191508051906020019080838360005b838110156200061a578082015181840152602081019050620005fd565b50505050905090810190601f168015620006485780820380516001836020036101000a031916815260200191505b50848103825285818151815260200191508051906020019080838360005b838110156200068357808201518184015260208101905062000666565b50505050905090810190601f168015620006b15780820380516001836020036101000a031916815260200191505b509a5050505050505050505050604051809103906000f080158015620006db573d6000803e3d6000fd5b5090508073ffffffffffffffffffffffffffffffffffffffff1663a6f9dae1336040518263ffffffff1660e01b8152600401808273ffffffffffffffffffffffffffffffffffffffff1673ffffffffffffffffffffffffffffffffffffffff168152602001915050600060405180830381600087803b1580156200075e57600080fd5b505af115801562000773573d6000803e3d6000fd5b5050505060008190806001815401808255809150509060018203906000526020600020016000909192909190916101000a81548173ffffffffffffffffffffffffffffffffffffffff021916908373ffffffffffffffffffffffffffffffffffffffff160217905550508773ffffffffffffffffffffffffffffffffffffffff163373ffffffffffffffffffffffffffffffffffffffff168273ffffffffffffffffffffffffffffffffffffffff167f4f217942c611af6d21af225a6a7382470e2136d58215210a5faa23a5b87c35d08c87604051808373ffffffffffffffffffffffffffffffffffffffff1673ffffffffffffffffffffffffffffffffffffffff16815260200180602001828103825283818151815260200191508051906020019080838360005b83811015620008b95780820151818401526020810190506200089c565b50505050905090810190601f168015620008e75780820380516001836020036101000a031916815260200191505b50935050505060405180910390a480915050979650505050505050565b600081815481106200091257fe5b906000526020600020016000915054906101000a900473ffffffffffffffffffffffffffffffffffffffff1681565b60606000808054905090506060816040519080825280602002602001820160405280156200097e5781602001602082028038833980820191505090505b509050600080905060008090505b8381101562000b27576000808281548110620009a457fe5b9060005260206000200160009054906101000a900473ffffffffffffffffffffffffffffffffffffffff16905060008190508773ffffffffffffffffffffffffffffffffffffffff168173ffffffffffffffffffffffffffffffffffffffff16638da5cb5b6040518163ffffffff1660e01b815260040160206040518083038186803b15801562000a3457600080fd5b505afa15801562000a49573d6000803e3d6000fd5b505050506040513d602081101562000a6057600080fd5b810190808051906020019092919050505073ffffffffffffffffffffffffffffffffffffffff16141562000b17576000838154811062000a9c57fe5b9060005260206000200160009054906101000a900473ffffffffffffffffffffffffffffffffffffffff1685858151811062000ad457fe5b602002602001019073ffffffffffffffffffffffffffffffffffffffff16908173ffffffffffffffffffffffffffffffffffffffff168152505083806001019450505b505080806001019150506200098c565b5060608160405190808252806020026020018201604052801562000b5a5781602001602082028038833980820191505090505b50905060008090505b815181101562000bd75783818151811062000b7a57fe5b602002602001015182828151811062000b8f57fe5b602002602001019073ffffffffffffffffffffffffffffffffffffffff16908173ffffffffffffffffffffffffffffffffffffffff1681525050808060010191505062000b63565b5080945050505050919050565b6148b88062000bf38339019056fe60806040523480156200001157600080fd5b50604051620048b8380380620048b8833981810160405260e08110156200003757600080fd5b8101908080519060200190929190805190602001909291908051906020019092919080519060200190929190805160405193929190846401000000008211156200008057600080fd5b838201915060208201858111156200009757600080fd5b8251866001820283011164010000000082111715620000b557600080fd5b8083526020830192505050908051906020019080838360005b83811015620000eb578082015181840152602081019050620000ce565b50505050905090810190601f168015620001195780820380516001836020036101000a031916815260200191505b50604052602001805160405193929190846401000000008211156200013d57600080fd5b838201915060208201858111156200015457600080fd5b82518660018202830111640100000000821117156200017257600080fd5b8083526020830192505050908051906020019080838360005b83811015620001a85780820151818401526020810190506200018b565b50505050905090810190601f168015620001d65780820380516001836020036101000a031916815260200191505b5060405260200180516040519392919084640100000000821115620001fa57600080fd5b838201915060208201858111156200021157600080fd5b82518660018202830111640100000000821117156200022f57600080fd5b8083526020830192505050908051906020019080838360005b838110156200026557808201518184015260208101905062000248565b50505050905090810190601f168015620002935780820380516001836020036101000a031916815260200191505b50604052505050828260128260039080519060200190620002b692919062000f55565b508160049080519060200190620002cf92919062000f55565b5080600560006101000a81548160ff021916908360ff16021790555050505033600e60006101000a81548173ffffffffffffffffffffffffffffffffffffffff021916908373ffffffffffffffffffffffffffffffffffffffff160217905550600073ffffffffffffffffffffffffffffffffffffffff168673ffffffffffffffffffffffffffffffffffffffff161415620003d3576040517f08c379a000000000000000000000000000000000000000000000000000000000815260040180806020018281038252601e8152602001807f73746f636b546f6b656e20697320746865207a65726f2061646472657373000081525060200191505060405180910390fd5b600073ffffffffffffffffffffffffffffffffffffffff168773ffffffffffffffffffffffffffffffffffffffff16141562000477576040517f08c379a00000000000000000000000000000000000000000000000000000000081526004018080602001828103825260188152602001807f6361736820697320746865207a65726f2061646472657373000000000000000081525060200191505060405180910390fd5b86600860006101000a81548173ffffffffffffffffffffffffffffffffffffffff021916908373ffffffffffffffffffffffffffffffffffffffff16021790555085600960006101000a81548173ffffffffffffffffffffffffffffffffffffffff021916908373ffffffffffffffffffffffffffffffffffffffff160217905550600860009054906101000a900473ffffffffffffffffffffffffffffffffffffffff1673ffffffffffffffffffffffffffffffffffffffff1663313ce5676040518163ffffffff1660e01b815260040160206040518083038186803b1580156200056257600080fd5b505afa15801562000577573d6000803e3d6000fd5b505050506040513d60208110156200058e57600080fd5b810190808051906020019092919050505060ff16600681905550600960009054906101000a900473ffffffffffffffffffffffffffffffffffffffff1673ffffffffffffffffffffffffffffffffffffffff1663313ce5676040518163ffffffff1660e01b815260040160206040518083038186803b1580156200061157600080fd5b505afa15801562000626573d6000803e3d6000fd5b505050506040513d60208110156200063d57600080fd5b810190808051906020019092919050505060ff16600a0a6007819055506200067985600654600a0a620006c160201b62002b4b1790919060201c565b600a819055506200068f6200074c60201b60201c565b50620006a1846200083160201b60201c565b50620006b3816200093f60201b60201c565b505050505050505062001004565b600080831415620006d6576000905062000746565b6000828402905082848281620006e857fe5b041462000741576040517f08c379a0000000000000000000000000000000000000000000000000000000008152600401808060200182810382526021815260200180620048976021913960400191505060405180910390fd5b809150505b92915050565b6000806200075f62000b6360201b60201c565b14156200079257620007866001600654600a0a620006c160201b62002b4b1790919060201c565b600b81905550620007f2565b620007eb620007a662000b6360201b60201c565b620007d7670de0b6b3a7640000620007c362000b6d60201b60201c565b620006c160201b62002b4b1790919060201c565b62000be760201b62002bd11790919060201c565b600b819055505b7fc68a9a1667c87e211e1fdb8d320762f34843823de13733d23a0519ba5dd21b66816040518082815260200191505060405180910390a1600b54905090565b6000600e60009054906101000a900473ffffffffffffffffffffffffffffffffffffffff1673ffffffffffffffffffffffffffffffffffffffff163373ffffffffffffffffffffffffffffffffffffffff1614620008f7576040517f08c379a00000000000000000000000000000000000000000000000000000000081526004018080602001828103825260118152602001807f4163636f756e74206e6f74204f776e657200000000000000000000000000000081525060200191505060405180910390fd5b81600c819055507f7b51412dc2b6e5fc32497110f29da4f92c9d3b8924cddd4e6a2884f66a774bdb826040518082815260200191505060405180910390a1600c549050919050565b6060600e60009054906101000a900473ffffffffffffffffffffffffffffffffffffffff1673ffffffffffffffffffffffffffffffffffffffff163373ffffffffffffffffffffffffffffffffffffffff161462000a05576040517f08c379a00000000000000000000000000000000000000000000000000000000081526004018080602001828103825260118152602001807f4163636f756e74206e6f74204f776e657200000000000000000000000000000081525060200191505060405180910390fd5b81600d908051906020019062000a1d92919062000f55565b507fc601e6cbfab914ce20078cb17a4e5b9831b1d612db470153922f08ff15d9075c826040518080602001828103825283818151815260200191508051906020019080838360005b8381101562000a8257808201518184015260208101905062000a65565b50505050905090810190601f16801562000ab05780820380516001836020036101000a031916815260200191505b509250505060405180910390a1600d8054600181600116156101000203166002900480601f01602080910402602001604051908101604052809291908181526020018280546001816001161561010002031660029004801562000b575780601f1062000b2b5761010080835404028352916020019162000b57565b820191906000526020600020905b81548152906001019060200180831162000b3957829003601f168201915b50505050509050919050565b6000600254905090565b60008062000bb660075462000ba2600a5462000b8e62000c3960201b60201c565b620006c160201b62002b4b1790919060201c565b62000be760201b62002bd11790919060201c565b905062000be18162000bcd62000d1d60201b60201c565b62000e0160201b62002d1c1790919060201c565b91505090565b600062000c3183836040518060400160405280601a81526020017f536166654d6174683a206469766973696f6e206279207a65726f00000000000081525062000e8a60201b60201c565b905092915050565b6000600960009054906101000a900473ffffffffffffffffffffffffffffffffffffffff1673ffffffffffffffffffffffffffffffffffffffff166370a08231306040518263ffffffff1660e01b8152600401808273ffffffffffffffffffffffffffffffffffffffff1673ffffffffffffffffffffffffffffffffffffffff16815260200191505060206040518083038186803b15801562000cdb57600080fd5b505afa15801562000cf0573d6000803e3d6000fd5b505050506040513d602081101562000d0757600080fd5b8101908080519060200190929190505050905090565b6000600860009054906101000a900473ffffffffffffffffffffffffffffffffffffffff1673ffffffffffffffffffffffffffffffffffffffff166370a08231306040518263ffffffff1660e01b8152600401808273ffffffffffffffffffffffffffffffffffffffff1673ffffffffffffffffffffffffffffffffffffffff16815260200191505060206040518083038186803b15801562000dbf57600080fd5b505afa15801562000dd4573d6000803e3d6000fd5b505050506040513d602081101562000deb57600080fd5b8101908080519060200190929190505050905090565b60008082840190508381101562000e80576040517f08c379a000000000000000000000000000000000000000000000000000000000815260040180806020018281038252601b8152602001807f536166654d6174683a206164646974696f6e206f766572666c6f77000000000081525060200191505060405180910390fd5b8091505092915050565b6000808311829062000f3a576040517f08c379a00000000000000000000000000000000000000000000000000000000081526004018080602001828103825283818151815260200191508051906020019080838360005b8381101562000efe57808201518184015260208101905062000ee1565b50505050905090810190601f16801562000f2c5780820380516001836020036101000a031916815260200191505b509250505060405180910390fd5b50600083858162000f4757fe5b049050809150509392505050565b828054600181600116156101000203166002900490600052602060002090601f016020900481019282601f1062000f9857805160ff191683800117855562000fc9565b8280016001018555821562000fc9579182015b8281111562000fc857825182559160200191906001019062000fab565b5b50905062000fd8919062000fdc565b5090565b6200100191905b8082111562000ffd57600081600090555060010162000fe3565b5090565b90565b61388380620010146000396000f3fe6080604052600436106101cd5760003560e01c806369ba16dd116100f75780639d7c9d8c11610095578063c256e7af11610064578063c256e7af146109be578063d3ee6a3a146109e9578063dd62ed3e14610a38578063fbc51e4b14610abd576101cd565b80639d7c9d8c1461085c578063a457c2d714610887578063a6f9dae1146108fa578063a9059cbb1461094b576101cd565b806388669451116100d1578063886694511461071f5780638da5cb5b1461074a57806395d89b41146107a15780639680b92c14610831576101cd565b806369ba16dd146106545780636f69f3001461067f57806370a08231146106ba576101cd565b806325b0d7cc1161016f57806341c0e1b51161013e57806341c0e1b5146105475780634f991f241461055e578063520b98af146105995780635600f04f146105c4576101cd565b806325b0d7cc146104215780632a8da7c71461044c578063313ce567146104a357806339509351146104d4576101cd565b806310423d22116101ab57806310423d22146102fd57806316cc29961461032857806318160ddd1461036357806323b872dd1461038e576101cd565b8063038fa223146101cf57806306fdde03146101fa578063095ea7b31461028a575b005b3480156101db57600080fd5b506101e4610bfe565b6040518082815260200191505060405180910390f35b34801561020657600080fd5b5061020f610cdf565b6040518080602001828103825283818151815260200191508051906020019080838360005b8381101561024f578082015181840152602081019050610234565b50505050905090810190601f16801561027c5780820380516001836020036101000a031916815260200191505b509250505060405180910390f35b34801561029657600080fd5b506102e3600480360360408110156102ad57600080fd5b81019080803573ffffffffffffffffffffffffffffffffffffffff16906020019092919080359060200190929190505050610d81565b604051808215151515815260200191505060405180910390f35b34801561030957600080fd5b50610312610d9f565b6040518082815260200191505060405180910390f35b34801561033457600080fd5b506103616004803603602081101561034b57600080fd5b8101908080359060200190929190505050610e55565b005b34801561036f57600080fd5b50610378611312565b6040518082815260200191505060405180910390f35b34801561039a57600080fd5b50610407600480360360608110156103b157600080fd5b81019080803573ffffffffffffffffffffffffffffffffffffffff169060200190929190803573ffffffffffffffffffffffffffffffffffffffff1690602001909291908035906020019092919050505061131c565b604051808215151515815260200191505060405180910390f35b34801561042d57600080fd5b506104366113f5565b6040518082815260200191505060405180910390f35b34801561045857600080fd5b506104616114d6565b604051808273ffffffffffffffffffffffffffffffffffffffff1673ffffffffffffffffffffffffffffffffffffffff16815260200191505060405180910390f35b3480156104af57600080fd5b506104b8611500565b604051808260ff1660ff16815260200191505060405180910390f35b3480156104e057600080fd5b5061052d600480360360408110156104f757600080fd5b81019080803573ffffffffffffffffffffffffffffffffffffffff16906020019092919080359060200190929190505050611517565b604051808215151515815260200191505060405180910390f35b34801561055357600080fd5b5061055c6115ca565b005b34801561056a57600080fd5b506105976004803603602081101561058157600080fd5b81019080803590602001909291905050506116c8565b005b3480156105a557600080fd5b506105ae611b38565b6040518082815260200191505060405180910390f35b3480156105d057600080fd5b506105d9611b8d565b6040518080602001828103825283818151815260200191508051906020019080838360005b838110156106195780820151818401526020810190506105fe565b50505050905090810190601f1680156106465780820380516001836020036101000a031916815260200191505b509250505060405180910390f35b34801561066057600080fd5b50610669611c2b565b6040518082815260200191505060405180910390f35b34801561068b57600080fd5b506106b8600480360360208110156106a257600080fd5b8101908080359060200190929190505050611c31565b005b3480156106c657600080fd5b50610709600480360360208110156106dd57600080fd5b81019080803573ffffffffffffffffffffffffffffffffffffffff169060200190929190505050612241565b6040518082815260200191505060405180910390f35b34801561072b57600080fd5b50610734612289565b6040518082815260200191505060405180910390f35b34801561075657600080fd5b5061075f61228f565b604051808273ffffffffffffffffffffffffffffffffffffffff1673ffffffffffffffffffffffffffffffffffffffff16815260200191505060405180910390f35b3480156107ad57600080fd5b506107b66122b5565b6040518080602001828103825283818151815260200191508051906020019080838360005b838110156107f65780820151818401526020810190506107db565b50505050905090810190601f1680156108235780820380516001836020036101000a031916815260200191505b509250505060405180910390f35b34801561083d57600080fd5b50610846612357565b6040518082815260200191505060405180910390f35b34801561086857600080fd5b5061087161235d565b6040518082815260200191505060405180910390f35b34801561089357600080fd5b506108e0600480360360408110156108aa57600080fd5b81019080803573ffffffffffffffffffffffffffffffffffffffff16906020019092919080359060200190929190505050612363565b604051808215151515815260200191505060405180910390f35b34801561090657600080fd5b506109496004803603602081101561091d57600080fd5b81019080803573ffffffffffffffffffffffffffffffffffffffff169060200190929190505050612430565b005b34801561095757600080fd5b506109a46004803603604081101561096e57600080fd5b81019080803573ffffffffffffffffffffffffffffffffffffffff1690602001909291908035906020019092919050505061257a565b604051808215151515815260200191505060405180910390f35b3480156109ca57600080fd5b506109d3612598565b6040518082815260200191505060405180910390f35b3480156109f557600080fd5b50610a2260048036036020811015610a0c57600080fd5b810190808035906020019092919050505061259e565b6040518082815260200191505060405180910390f35b348015610a4457600080fd5b50610aa760048036036040811015610a5b57600080fd5b81019080803573ffffffffffffffffffffffffffffffffffffffff169060200190929190803573ffffffffffffffffffffffffffffffffffffffff1690602001909291905050506126ab565b6040518082815260200191505060405180910390f35b348015610ac957600080fd5b50610b8360048036036020811015610ae057600080fd5b8101908080359060200190640100000000811115610afd57600080fd5b820183602082011115610b0f57600080fd5b80359060200191846001830284011164010000000083111715610b3157600080fd5b91908080601f016020809104026020016040519081016040528093929190818152602001838380828437600081840152601f19601f820116905080830192505050505050509192919290505050612732565b6040518080602001828103825283818151815260200191508051906020019080838360005b83811015610bc3578082015181840152602081019050610ba8565b50505050905090810190601f168015610bf05780820380516001836020036101000a031916815260200191505b509250505060405180910390f35b6000600960009054906101000a900473ffffffffffffffffffffffffffffffffffffffff1673ffffffffffffffffffffffffffffffffffffffff166370a08231306040518263ffffffff1660e01b8152600401808273ffffffffffffffffffffffffffffffffffffffff1673ffffffffffffffffffffffffffffffffffffffff16815260200191505060206040518083038186803b158015610c9f57600080fd5b505afa158015610cb3573d6000803e3d6000fd5b505050506040513d6020811015610cc957600080fd5b8101908080519060200190929190505050905090565b606060038054600181600116156101000203166002900480601f016020809104026020016040519081016040528092919081815260200182805460018160011615610100020316600290048015610d775780601f10610d4c57610100808354040283529160200191610d77565b820191906000526020600020905b815481529060010190602001808311610d5a57829003601f168201915b5050505050905090565b6000610d95610d8e61294c565b8484612954565b6001905092915050565b600080610daa611312565b1415610dd457610dc96001600654600a0a612b4b90919063ffffffff16565b600b81905550610e16565b610e0f610ddf611312565b610e01670de0b6b3a7640000610df3611b38565b612b4b90919063ffffffff16565b612bd190919063ffffffff16565b600b819055505b7fc68a9a1667c87e211e1fdb8d320762f34843823de13733d23a0519ba5dd21b66816040518082815260200191505060405180910390a1600b54905090565b6000339050610e648183612c1b565b600960009054906101000a900473ffffffffffffffffffffffffffffffffffffffff1673ffffffffffffffffffffffffffffffffffffffff166323b872dd8230856040518463ffffffff1660e01b8152600401808473ffffffffffffffffffffffffffffffffffffffff1673ffffffffffffffffffffffffffffffffffffffff1681526020018373ffffffffffffffffffffffffffffffffffffffff1673ffffffffffffffffffffffffffffffffffffffff1681526020018281526020019350505050602060405180830381600087803b158015610f4157600080fd5b505af1158015610f55573d6000803e3d6000fd5b505050506040513d6020811015610f6b57600080fd5b8101908080519060200190929190505050506000610fa8600754610f9a600a5486612b4b90919063ffffffff16565b612bd190919063ffffffff16565b90506000600860009054906101000a900473ffffffffffffffffffffffffffffffffffffffff1673ffffffffffffffffffffffffffffffffffffffff166370a08231846040518263ffffffff1660e01b8152600401808273ffffffffffffffffffffffffffffffffffffffff1673ffffffffffffffffffffffffffffffffffffffff16815260200191505060206040518083038186803b15801561104b57600080fd5b505afa15801561105f573d6000803e3d6000fd5b505050506040513d602081101561107557600080fd5b81019080805190602001909291905050509050600860009054906101000a900473ffffffffffffffffffffffffffffffffffffffff1673ffffffffffffffffffffffffffffffffffffffff1663a9059cbb84846040518363ffffffff1660e01b8152600401808373ffffffffffffffffffffffffffffffffffffffff1673ffffffffffffffffffffffffffffffffffffffff16815260200182815260200192505050602060405180830381600087803b15801561113157600080fd5b505af1158015611145573d6000803e3d6000fd5b505050506040513d602081101561115b57600080fd5b8101908080519060200190929190505050506000600860009054906101000a900473ffffffffffffffffffffffffffffffffffffffff1673ffffffffffffffffffffffffffffffffffffffff166370a08231856040518263ffffffff1660e01b8152600401808273ffffffffffffffffffffffffffffffffffffffff1673ffffffffffffffffffffffffffffffffffffffff16815260200191505060206040518083038186803b15801561120e57600080fd5b505afa158015611222573d6000803e3d6000fd5b505050506040513d602081101561123857600080fd5b8101908080519060200190929190505050905061125e8383612d1c90919063ffffffff16565b81146112b5576040517f08c379a00000000000000000000000000000000000000000000000000000000081526004018080602001828103825260218152602001806137076021913960400191505060405180910390fd5b8373ffffffffffffffffffffffffffffffffffffffff167f55233d8a154170c5f6990012b5ba97f3b042ee915ec1f11c7528c067b3ea5a798685604051808381526020018281526020019250505060405180910390a25050505050565b6000600254905090565b6000611329848484612da4565b6113ea8461133561294c565b6113e58560405180606001604052806028815260200161379860289139600160008b73ffffffffffffffffffffffffffffffffffffffff1673ffffffffffffffffffffffffffffffffffffffff168152602001908152602001600020600061139b61294c565b73ffffffffffffffffffffffffffffffffffffffff1673ffffffffffffffffffffffffffffffffffffffff1681526020019081526020016000205461305a9092919063ffffffff16565b612954565b600190509392505050565b6000600860009054906101000a900473ffffffffffffffffffffffffffffffffffffffff1673ffffffffffffffffffffffffffffffffffffffff166370a08231306040518263ffffffff1660e01b8152600401808273ffffffffffffffffffffffffffffffffffffffff1673ffffffffffffffffffffffffffffffffffffffff16815260200191505060206040518083038186803b15801561149657600080fd5b505afa1580156114aa573d6000803e3d6000fd5b505050506040513d60208110156114c057600080fd5b8101908080519060200190929190505050905090565b6000600960009054906101000a900473ffffffffffffffffffffffffffffffffffffffff16905090565b6000600560009054906101000a900460ff16905090565b60006115c061152461294c565b846115bb856001600061153561294c565b73ffffffffffffffffffffffffffffffffffffffff1673ffffffffffffffffffffffffffffffffffffffff16815260200190815260200160002060008973ffffffffffffffffffffffffffffffffffffffff1673ffffffffffffffffffffffffffffffffffffffff16815260200190815260200160002054612d1c90919063ffffffff16565b612954565b6001905092915050565b600e60009054906101000a900473ffffffffffffffffffffffffffffffffffffffff1673ffffffffffffffffffffffffffffffffffffffff163373ffffffffffffffffffffffffffffffffffffffff161461168d576040517f08c379a00000000000000000000000000000000000000000000000000000000081526004018080602001828103825260118152602001807f4163636f756e74206e6f74204f776e657200000000000000000000000000000081525060200191505060405180910390fd5b600e60009054906101000a900473ffffffffffffffffffffffffffffffffffffffff1673ffffffffffffffffffffffffffffffffffffffff16ff5b6000600c541461174757600c546116ef6116e0611b38565b83612d1c90919063ffffffff16565b1115611746576040517f08c379a000000000000000000000000000000000000000000000000000000000815260040180806020018281038252602981526020018061374e6029913960400191505060405180910390fd5b5b60003390506117568183612c1b565b61175e610d9f565b506000600860009054906101000a900473ffffffffffffffffffffffffffffffffffffffff1673ffffffffffffffffffffffffffffffffffffffff166370a08231306040518263ffffffff1660e01b8152600401808273ffffffffffffffffffffffffffffffffffffffff1673ffffffffffffffffffffffffffffffffffffffff16815260200191505060206040518083038186803b15801561180057600080fd5b505afa158015611814573d6000803e3d6000fd5b505050506040513d602081101561182a57600080fd5b81019080805190602001909291905050509050600860009054906101000a900473ffffffffffffffffffffffffffffffffffffffff1673ffffffffffffffffffffffffffffffffffffffff166323b872dd8330866040518463ffffffff1660e01b8152600401808473ffffffffffffffffffffffffffffffffffffffff1673ffffffffffffffffffffffffffffffffffffffff1681526020018373ffffffffffffffffffffffffffffffffffffffff1673ffffffffffffffffffffffffffffffffffffffff1681526020018281526020019350505050602060405180830381600087803b15801561191a57600080fd5b505af115801561192e573d6000803e3d6000fd5b505050506040513d602081101561194457600080fd5b8101908080519060200190929190505050506000600860009054906101000a900473ffffffffffffffffffffffffffffffffffffffff1673ffffffffffffffffffffffffffffffffffffffff166370a08231306040518263ffffffff1660e01b8152600401808273ffffffffffffffffffffffffffffffffffffffff1673ffffffffffffffffffffffffffffffffffffffff16815260200191505060206040518083038186803b1580156119f757600080fd5b505afa158015611a0b573d6000803e3d6000fd5b505050506040513d6020811015611a2157600080fd5b81019080805190602001909291905050509050611a478483612d1c90919063ffffffff16565b8114611a9e576040517f08c379a00000000000000000000000000000000000000000000000000000000081526004018080602001828103825260218152602001806137076021913960400191505060405180910390fd5b6000611acf600b54611ac1670de0b6b3a764000088612b4b90919063ffffffff16565b612bd190919063ffffffff16565b9050611adb848261311a565b8373ffffffffffffffffffffffffffffffffffffffff167f6815a1741b4c93c1ee374050672677deb65eacfa89878fa1acdeb0ca323458b88683604051808381526020018281526020019250505060405180910390a25050505050565b600080611b6b600754611b5d600a54611b4f610bfe565b612b4b90919063ffffffff16565b612bd190919063ffffffff16565b9050611b8781611b796113f5565b612d1c90919063ffffffff16565b91505090565b600d8054600181600116156101000203166002900480601f016020809104026020016040519081016040528092919081815260200182805460018160011615610100020316600290048015611c235780601f10611bf857610100808354040283529160200191611c23565b820191906000526020600020905b815481529060010190602001808311611c0657829003601f168201915b505050505081565b600a5481565b6000339050611c408183612c1b565b611c48610d9f565b506000611c7a670de0b6b3a7640000611c6c600b5486612b4b90919063ffffffff16565b612bd190919063ffffffff16565b9050611c8682846132d5565b6000809050600080905082611c9961348d565b10611db357611cc7600a54611cb960075486612b4b90919063ffffffff16565b612bd190919063ffffffff16565b9150600960009054906101000a900473ffffffffffffffffffffffffffffffffffffffff1673ffffffffffffffffffffffffffffffffffffffff1663a9059cbb85846040518363ffffffff1660e01b8152600401808373ffffffffffffffffffffffffffffffffffffffff1673ffffffffffffffffffffffffffffffffffffffff16815260200182815260200192505050602060405180830381600087803b158015611d7257600080fd5b505af1158015611d86573d6000803e3d6000fd5b505050506040513d6020811015611d9c57600080fd5b8101908080519060200190929190505050506121dc565b611dbb61348d565b8311156121db57611dca610bfe565b9150611de6611dd761348d565b846134c990919063ffffffff16565b9050600960009054906101000a900473ffffffffffffffffffffffffffffffffffffffff1673ffffffffffffffffffffffffffffffffffffffff1663a9059cbb85846040518363ffffffff1660e01b8152600401808373ffffffffffffffffffffffffffffffffffffffff1673ffffffffffffffffffffffffffffffffffffffff16815260200182815260200192505050602060405180830381600087803b158015611e9157600080fd5b505af1158015611ea5573d6000803e3d6000fd5b505050506040513d6020811015611ebb57600080fd5b8101908080519060200190929190505050506000600860009054906101000a900473ffffffffffffffffffffffffffffffffffffffff1673ffffffffffffffffffffffffffffffffffffffff166370a08231866040518263ffffffff1660e01b8152600401808273ffffffffffffffffffffffffffffffffffffffff1673ffffffffffffffffffffffffffffffffffffffff16815260200191505060206040518083038186803b158015611f6e57600080fd5b505afa158015611f82573d6000803e3d6000fd5b505050506040513d6020811015611f9857600080fd5b81019080805190602001909291905050509050600860009054906101000a900473ffffffffffffffffffffffffffffffffffffffff1673ffffffffffffffffffffffffffffffffffffffff1663a9059cbb86846040518363ffffffff1660e01b8152600401808373ffffffffffffffffffffffffffffffffffffffff1673ffffffffffffffffffffffffffffffffffffffff16815260200182815260200192505050602060405180830381600087803b15801561205457600080fd5b505af1158015612068573d6000803e3d6000fd5b505050506040513d602081101561207e57600080fd5b8101908080519060200190929190505050506000600860009054906101000a900473ffffffffffffffffffffffffffffffffffffffff1673ffffffffffffffffffffffffffffffffffffffff166370a08231876040518263ffffffff1660e01b8152600401808273ffffffffffffffffffffffffffffffffffffffff1673ffffffffffffffffffffffffffffffffffffffff16815260200191505060206040518083038186803b15801561213157600080fd5b505afa158015612145573d6000803e3d6000fd5b505050506040513d602081101561215b57600080fd5b810190808051906020019092919050505090506121818383612d1c90919063ffffffff16565b81146121d8576040517f08c379a00000000000000000000000000000000000000000000000000000000081526004018080602001828103825260218152602001806137076021913960400191505060405180910390fd5b50505b5b8373ffffffffffffffffffffffffffffffffffffffff167fbed5597a1441723ad2bde2b25295dd90b779504ea866c708d221b4722b50c95c86848460405180848152602001838152602001828152602001935050505060405180910390a25050505050565b60008060008373ffffffffffffffffffffffffffffffffffffffff1673ffffffffffffffffffffffffffffffffffffffff168152602001908152602001600020549050919050565b600c5481565b600e60009054906101000a900473ffffffffffffffffffffffffffffffffffffffff1681565b606060048054600181600116156101000203166002900480601f01602080910402602001604051908101604052809291908181526020018280546001816001161561010002031660029004801561234d5780601f106123225761010080835404028352916020019161234d565b820191906000526020600020905b81548152906001019060200180831161233057829003601f168201915b5050505050905090565b60075481565b60065481565b600061242661237061294c565b846124218560405180606001604052806025815260200161382a602591396001600061239a61294c565b73ffffffffffffffffffffffffffffffffffffffff1673ffffffffffffffffffffffffffffffffffffffff16815260200190815260200160002060008a73ffffffffffffffffffffffffffffffffffffffff1673ffffffffffffffffffffffffffffffffffffffff1681526020019081526020016000205461305a9092919063ffffffff16565b612954565b6001905092915050565b600e60009054906101000a900473ffffffffffffffffffffffffffffffffffffffff1673ffffffffffffffffffffffffffffffffffffffff163373ffffffffffffffffffffffffffffffffffffffff16146124f3576040517f08c379a00000000000000000000000000000000000000000000000000000000081526004018080602001828103825260118152602001807f4163636f756e74206e6f74204f776e657200000000000000000000000000000081525060200191505060405180910390fd5b80600e60006101000a81548173ffffffffffffffffffffffffffffffffffffffff021916908373ffffffffffffffffffffffffffffffffffffffff1602179055508073ffffffffffffffffffffffffffffffffffffffff167fa2ea9883a321a3e97b8266c2b078bfeec6d50c711ed71f874a90d500ae2eaf3660405160405180910390a250565b600061258e61258761294c565b8484612da4565b6001905092915050565b600b5481565b6000600e60009054906101000a900473ffffffffffffffffffffffffffffffffffffffff1673ffffffffffffffffffffffffffffffffffffffff163373ffffffffffffffffffffffffffffffffffffffff1614612663576040517f08c379a00000000000000000000000000000000000000000000000000000000081526004018080602001828103825260118152602001807f4163636f756e74206e6f74204f776e657200000000000000000000000000000081525060200191505060405180910390fd5b81600c819055507f7b51412dc2b6e5fc32497110f29da4f92c9d3b8924cddd4e6a2884f66a774bdb826040518082815260200191505060405180910390a1600c549050919050565b6000600160008473ffffffffffffffffffffffffffffffffffffffff1673ffffffffffffffffffffffffffffffffffffffff16815260200190815260200160002060008373ffffffffffffffffffffffffffffffffffffffff1673ffffffffffffffffffffffffffffffffffffffff16815260200190815260200160002054905092915050565b6060600e60009054906101000a900473ffffffffffffffffffffffffffffffffffffffff1673ffffffffffffffffffffffffffffffffffffffff163373ffffffffffffffffffffffffffffffffffffffff16146127f7576040517f08c379a00000000000000000000000000000000000000000000000000000000081526004018080602001828103825260118152602001807f4163636f756e74206e6f74204f776e657200000000000000000000000000000081525060200191505060405180910390fd5b81600d908051906020019061280d9291906135d9565b507fc601e6cbfab914ce20078cb17a4e5b9831b1d612db470153922f08ff15d9075c826040518080602001828103825283818151815260200191508051906020019080838360005b83811015612870578082015181840152602081019050612855565b50505050905090810190601f16801561289d5780820380516001836020036101000a031916815260200191505b509250505060405180910390a1600d8054600181600116156101000203166002900480601f0160208091040260200160405190810160405280929190818152602001828054600181600116156101000203166002900480156129405780601f1061291557610100808354040283529160200191612940565b820191906000526020600020905b81548152906001019060200180831161292357829003601f168201915b50505050509050919050565b600033905090565b600073ffffffffffffffffffffffffffffffffffffffff168373ffffffffffffffffffffffffffffffffffffffff1614156129da576040517f08c379a00000000000000000000000000000000000000000000000000000000081526004018080602001828103825260248152602001806138066024913960400191505060405180910390fd5b600073ffffffffffffffffffffffffffffffffffffffff168273ffffffffffffffffffffffffffffffffffffffff161415612a60576040517f08c379a00000000000000000000000000000000000000000000000000000000081526004018080602001828103825260228152602001806136e56022913960400191505060405180910390fd5b80600160008573ffffffffffffffffffffffffffffffffffffffff1673ffffffffffffffffffffffffffffffffffffffff16815260200190815260200160002060008473ffffffffffffffffffffffffffffffffffffffff1673ffffffffffffffffffffffffffffffffffffffff168152602001908152602001600020819055508173ffffffffffffffffffffffffffffffffffffffff168373ffffffffffffffffffffffffffffffffffffffff167f8c5be1e5ebec7d5bd14f71427d1e84f3dd0314c0f7b2291e5b200ac8c7c3b925836040518082815260200191505060405180910390a3505050565b600080831415612b5e5760009050612bcb565b6000828402905082848281612b6f57fe5b0414612bc6576040517f08c379a00000000000000000000000000000000000000000000000000000000081526004018080602001828103825260218152602001806137776021913960400191505060405180910390fd5b809150505b92915050565b6000612c1383836040518060400160405280601a81526020017f536166654d6174683a206469766973696f6e206279207a65726f000000000000815250613513565b905092915050565b600073ffffffffffffffffffffffffffffffffffffffff168273ffffffffffffffffffffffffffffffffffffffff161415612ca1576040517f08c379a00000000000000000000000000000000000000000000000000000000081526004018080602001828103825260218152602001806136a26021913960400191505060405180910390fd5b6000811415612d18576040517f08c379a00000000000000000000000000000000000000000000000000000000081526004018080602001828103825260118152602001807f616d6f756e742063616e2774206265203000000000000000000000000000000081525060200191505060405180910390fd5b5050565b600080828401905083811015612d9a576040517f08c379a000000000000000000000000000000000000000000000000000000000815260040180806020018281038252601b8152602001807f536166654d6174683a206164646974696f6e206f766572666c6f77000000000081525060200191505060405180910390fd5b8091505092915050565b600073ffffffffffffffffffffffffffffffffffffffff168373ffffffffffffffffffffffffffffffffffffffff161415612e2a576040517f08c379a00000000000000000000000000000000000000000000000000000000081526004018080602001828103825260258152602001806137e16025913960400191505060405180910390fd5b600073ffffffffffffffffffffffffffffffffffffffff168273ffffffffffffffffffffffffffffffffffffffff161415612eb0576040517f08c379a000000000000000000000000000000000000000000000000000000000815260040180806020018281038252602381526020018061367f6023913960400191505060405180910390fd5b612f1b81604051806060016040528060268152602001613728602691396000808773ffffffffffffffffffffffffffffffffffffffff1673ffffffffffffffffffffffffffffffffffffffff1681526020019081526020016000205461305a9092919063ffffffff16565b6000808573ffffffffffffffffffffffffffffffffffffffff1673ffffffffffffffffffffffffffffffffffffffff16815260200190815260200160002081905550612fae816000808573ffffffffffffffffffffffffffffffffffffffff1673ffffffffffffffffffffffffffffffffffffffff16815260200190815260200160002054612d1c90919063ffffffff16565b6000808473ffffffffffffffffffffffffffffffffffffffff1673ffffffffffffffffffffffffffffffffffffffff168152602001908152602001600020819055508173ffffffffffffffffffffffffffffffffffffffff168373ffffffffffffffffffffffffffffffffffffffff167fddf252ad1be2c89b69c2b068fc378daa952ba7f163c4a11628f55a4df523b3ef836040518082815260200191505060405180910390a3505050565b6000838311158290613107576040517f08c379a00000000000000000000000000000000000000000000000000000000081526004018080602001828103825283818151815260200191508051906020019080838360005b838110156130cc5780820151818401526020810190506130b1565b50505050905090810190601f1680156130f95780820380516001836020036101000a031916815260200191505b509250505060405180910390fd5b5060008385039050809150509392505050565b600073ffffffffffffffffffffffffffffffffffffffff168273ffffffffffffffffffffffffffffffffffffffff1614156131bd576040517f08c379a000000000000000000000000000000000000000000000000000000000815260040180806020018281038252601f8152602001807f45524332303a206d696e7420746f20746865207a65726f20616464726573730081525060200191505060405180910390fd5b6131d281600254612d1c90919063ffffffff16565b600281905550613229816000808573ffffffffffffffffffffffffffffffffffffffff1673ffffffffffffffffffffffffffffffffffffffff16815260200190815260200160002054612d1c90919063ffffffff16565b6000808473ffffffffffffffffffffffffffffffffffffffff1673ffffffffffffffffffffffffffffffffffffffff168152602001908152602001600020819055508173ffffffffffffffffffffffffffffffffffffffff16600073ffffffffffffffffffffffffffffffffffffffff167fddf252ad1be2c89b69c2b068fc378daa952ba7f163c4a11628f55a4df523b3ef836040518082815260200191505060405180910390a35050565b600073ffffffffffffffffffffffffffffffffffffffff168273ffffffffffffffffffffffffffffffffffffffff16141561335b576040517f08c379a00000000000000000000000000000000000000000000000000000000081526004018080602001828103825260218152602001806137c06021913960400191505060405180910390fd5b6133c6816040518060600160405280602281526020016136c3602291396000808673ffffffffffffffffffffffffffffffffffffffff1673ffffffffffffffffffffffffffffffffffffffff1681526020019081526020016000205461305a9092919063ffffffff16565b6000808473ffffffffffffffffffffffffffffffffffffffff1673ffffffffffffffffffffffffffffffffffffffff1681526020019081526020016000208190555061341d816002546134c990919063ffffffff16565b600281905550600073ffffffffffffffffffffffffffffffffffffffff168273ffffffffffffffffffffffffffffffffffffffff167fddf252ad1be2c89b69c2b068fc378daa952ba7f163c4a11628f55a4df523b3ef836040518082815260200191505060405180910390a35050565b6000806134c06007546134b2600a546134a4610bfe565b612b4b90919063ffffffff16565b612bd190919063ffffffff16565b90508091505090565b600061350b83836040518060400160405280601e81526020017f536166654d6174683a207375627472616374696f6e206f766572666c6f77000081525061305a565b905092915050565b600080831182906135bf576040517f08c379a00000000000000000000000000000000000000000000000000000000081526004018080602001828103825283818151815260200191508051906020019080838360005b83811015613584578082015181840152602081019050613569565b50505050905090810190601f1680156135b15780820380516001836020036101000a031916815260200191505b509250505060405180910390fd5b5060008385816135cb57fe5b049050809150509392505050565b828054600181600116156101000203166002900490600052602060002090601f016020900481019282601f1061361a57805160ff1916838001178555613648565b82800160010185558215613648579182015b8281111561364757825182559160200191906001019061362c565b5b5090506136559190613659565b5090565b61367b91905b8082111561367757600081600090555060010161365f565b5090565b9056fe45524332303a207472616e7366657220746f20746865207a65726f206164647265737342656e65666963696172792063616e2774206265207a65726f206164647265737345524332303a206275726e20616d6f756e7420657863656564732062616c616e636545524332303a20617070726f766520746f20746865207a65726f206164647265737353656e74202620526563656976656420416d6f756e74206d69736d61746368656445524332303a207472616e7366657220616d6f756e7420657863656564732062616c616e6365696e70757443617368416d6f756e742065786365656473206361736856616c61756174696f6e436170536166654d6174683a206d756c7469706c69636174696f6e206f766572666c6f7745524332303a207472616e7366657220616d6f756e74206578636565647320616c6c6f77616e636545524332303a206275726e2066726f6d20746865207a65726f206164647265737345524332303a207472616e736665722066726f6d20746865207a65726f206164647265737345524332303a20617070726f76652066726f6d20746865207a65726f206164647265737345524332303a2064656372656173656420616c6c6f77616e63652062656c6f77207a65726fa265627a7a723158204888784c48d3c5896f9055fc7fc28e3814f92bed85d8a3dbc997d0d6f765a94464736f6c634300050c0032536166654d6174683a206d756c7469706c69636174696f6e206f766572666c6f77a265627a7a72315820ed3bd42c3eb94926e8a7aed4768b13de38744fa3d3abafcc2856f6892ff4db7464736f6c634300050c0032",
  "source": "pragma solidity 0.5.12;\n\nimport \"./StockLiquidator.sol\";\n\ncontract DeployFactory {\n    event CashBoxAdded(\n        address indexed cashBoxAddress,\n        address indexed cashBoxOwner,\n        address indexed assetTokenAddress,\n        address cashTokenAddress,\n        string url\n    );\n\n    address[] public cashBoxes;\n\n    function createCashBox(\n        address cashTokenAddress,\n        address assetTokenAddress,\n        uint256 assetToCashRate,\n        uint256 cashCap,\n        string memory name,\n        string memory symbol,\n        string memory url\n    ) public returns (address newCashBox) {\n        StockLiquiditator cashBox = new StockLiquiditator(\n            cashTokenAddress,\n            assetTokenAddress,\n            assetToCashRate,\n            cashCap,\n            name,\n            symbol,\n            url\n        );\n        cashBox.changeOwner(msg.sender);\n\n        cashBoxes.push(address(cashBox));\n        emit CashBoxAdded(\n            address(cashBox),\n            msg.sender,\n            assetTokenAddress,\n            cashTokenAddress,\n            url\n        );\n        return address(cashBox);\n    }\n\n    function getAllCashBoxes() public view returns (address[] memory) {\n        return cashBoxes;\n    }\n\n    function getCashBoxesByUser(address account)\n        external\n        view\n        returns (address[] memory)\n    {\n        uint256 len = cashBoxes.length;\n        address[] memory cashBoxesByUser = new address[](len);\n        uint256 index = 0;\n\n        for (uint256 i = 0; i < len; i++) {\n            address payable cashBoxAddress = address(uint160(cashBoxes[i]));\n            StockLiquiditator cashbox = StockLiquiditator(cashBoxAddress);\n\n            if (cashbox.owner() == account) {\n                cashBoxesByUser[index] = cashBoxes[i];\n                index++;\n            }\n        }\n\n        // to remove zero addresses from the result\n        address[] memory result = new address[](index);\n        for (uint256 i = 0; i < result.length; i++) {\n            result[i] = cashBoxesByUser[i];\n        }\n\n        return result;\n    }\n}\n",
  "sourcePath": "/home/akshay/workspace/opendao/cashbox-v1/contracts/DeployFactory.sol",
  "compiler": {
    "name": "solc",
    "version": "0.5.12+commit.7709ece9.Emscripten.clang"
  },
  "schemaVersion": "3.3.0",
  "updatedAt": "2020-10-14T07:40:28.750Z",
  "devdoc": {
    "methods": {}
  },
  "userdoc": {
    "methods": {}
  }
}